:100000000C94E6000C940E010C940E010C940E015D
:100010000C940E010C940E010C940E010C940E0124
:100020000C940E010C940E010C9453050C94C20513
:100030000C940E010C940E010C940E010C940E0104
:100040000C940E010C940E010C940E010C940E01F4
:100050000C940E010C940E010C940E010C940905E5
:100060000C940E010C940E010C940E010C940E01D4
:100070000C940E010C940E010C940E010C940E01C4
:100080000C940E010C940E010C940E010C940E01B4
:100090000C940E010C940E010C940E010C940E01A4
:1000A0000C940E010C940E010C940E010501090430
:1000B000A101A100050919012918150025019518AC
:1000C0007501810205010901A1000930093115807E
:1000D000257F950275088102C0C0C0080B0002028E
:1000E00002000009040000010202000005240010C3
:1000F000010524010101042402060524060001076C
:1001000005810310004009040100020A00000007F5
:1001100005020240000007058302400000040309B5
:100120000412010002EF0201404123368000010168
:1001300002030141726475696E6F204C4C430041AB
:10014000726475696E6F204C656F6E6172646F00CA
:1001500000000000240027002A002D0030000000CD
:100160000000250028002B002E00310004040404A8
:10017000040304050202020204030202020206064C
:100180000606060604040202020404040802011022
:1001900040804010204080408008020401804020C0
:1001A00010020110801020404020000000020009D1
:1001B0000F0000030401000C00000000000000001C
:1001C00000000000000000000000F40711241FBE22
:1001D000CFEFDAE0DEBFCDBF11E0A0E0B1E0ECE9A7
:1001E000FDE102C005900D92AE37B107D9F722E0CC
:1001F000AEE7B1E001C01D92AC35B207E1F710E007
:10020000C6EED0E004C02197FE010E94BF0EC53E9D
:10021000D107C9F70E94CC080C94CC0E0C940000B6
:10022000282F30E0F901E655FE4F9491F901E5578A
:10023000FE4F849124593E4FF9012491222309F461
:100240002EC09923E9F091509F30D0F4E92FF0E0CF
:10025000E45DFE4F0C94BF0E58015C013B01500160
:1002600054014001400140015F01650169016D01D8
:10027000730140017701909180009F7790938000F7
:10028000E22FF0E0EE0FFF1FE25AFE4FA591B4916E
:100290009FB7F894EC9180958E238C939FBF08951F
:1002A000909180009F7DEACF90918000977FE6CF6C
:1002B00094B59F7794BDE4CF94B59F7DFBCF90918B
:1002C00090009F7790939000DBCF909190009F7D5E
:1002D000F9CF90919000977FF5CF9091C0009F77D4
:1002E0009093C000CDCF9091C0009F7DF9CF9091A9
:1002F000C200977F9093C200C3CFFC018091B401EC
:10030000882311F13FB7F89482E08093E9002091AF
:10031000F200822F90E01816190614F481E090E0A4
:10032000882339F0289844E64093B3014091F100C6
:100330004083222339F02091F200211103C02BE6E3
:100340002093E8003FBF08958FEF9FEF0895CF936C
:10035000DF931F92CDB7DEB76983DC01ED91FC918D
:100360000280F381E02D41E050E0BE016F5F7F4FDE
:1003700009950F90DF91CF91089583E08093E90074
:100380008091F200882319F08AE38093E8000895B1
:10039000CF93DF931F92CDB7DEB7FC01848595859F
:1003A00097FD08C02FEF3FEF358724870F90DF912F
:1003B000CF910895CE0101960E947D01019719F415
:1003C000898190E0F3CF8FEF9FEFF0CF0F931F93D2
:1003D000CF93DF931F92CDB7DEB78C01FC018485EC
:1003E000958597FF0BC0CE0101960E947D01019774
:1003F00071F4898190E0F80195878487F8018485FC
:1004000095850F90DF91CF911F910F9108958FEFF8
:100410009FEFF1CFFC018485958597FD0BC09FB7B9
:10042000F89482E08093E9008091F2009FBF90E011
:10043000019608959FB7F89482E08093E900809137
:10044000F2009FBF90E00895CF93DF9390E0FC010E
:10045000E557FE4F249184599E4FFC0184918823D7
:10046000D1F090E0880F991FFC01E05BFE4FA59151
:10047000B491FC01E25AFE4FC591D491623071F4FF
:100480009FB7F8943C91822F809583238C93E881C9
:100490002E2B28839FBFDF91CF9108958FB7F894BB
:1004A000EC912E2B2C938FBFF6CF3FB7F894809111
:1004B000AF019091B001A091B101B091B20126B508
:1004C000A89B05C02F3F19F00196A11DB11D3FBF8C
:1004D000BA2FA92F982F8827BC01CD01620F711D5B
:1004E000811D911D42E0660F771F881F991F4A9555
:1004F000D1F708958F929F92AF92BF92CF92DF92E1
:10050000EF92FF924B015C010E9455026B017C014E
:100510000E9455026C197D098E099F09683E73403F
:1005200081059105A8F321E0821A9108A108B1087C
:1005300088EEC80E83E0D81EE11CF11C81149104E2
:10054000A104B10429F7FF90EF90DF90CF90BF9006
:10055000AF909F908F90089540918C0150918D01A4
:1005600020918A0130918B0142175307B4F4909186
:10057000E8009570E1F39091E80092FD19C0809336
:10058000F10080918C0190918D0101968F739927D4
:10059000892B19F48EEF8093E80080918C01909163
:1005A0008D01019690938D0180938C0181E00895D7
:1005B00080E00895EF92FF920F931F93CF93DF9304
:1005C000F82E192FE62E042F81E0860F880F0E9447
:1005D000AC0283E00E94AC02CF2DD12FEC0EFD2E99
:1005E000F11CCE15DF05B9F007FF13C0FE018491A1
:1005F0000E94AC02182F80E00E94AC028123219659
:100600008111EFCFDF91CF911F910F91FF90EF906C
:1006100008958881EDCF81E0F5CFDF92EF92FF92D0
:100620000F931F93CF93DF93D82E8A01EB017B01A9
:10063000E40EF51ECE15DF0559F0D7FE12C0FE01FF
:1006400084910E94AC0221968111F4CF0FEF1FEF2D
:10065000C801DF91CF911F910F91FF90EF90DF9034
:1006600008958881EECF2FB7F89487708093E900C2
:100670009091E800892F807295FF04C09091F2005C
:1006800080E4891B2FBF089583E00E94330390E02C
:1006900008957F928F929F92AF92BF92CF92DF92F6
:1006A000EF92FF920F931F93CF93DF93C82E8B018E
:1006B0007A018091B401811110C08FEF9FEFDF911B
:1006C000CF911F910F91FF90EF90DF90CF90BF904F
:1006D000AF909F908F907F9008958091900180FFC0
:1006E00005C08091E00082608093E000CE2DDF2D78
:1006F000D12C8AEFB82E8C2D8770982E8C2D80727D
:10070000882E8C2D8074782E9AE3A92E209719F4C8
:10071000DD2009F452C08C2D0E94330381110AC0E0
:10072000BA94BB2051F261E070E080E090E00E945A
:100730007A02ECCF8C171D0611F00CF08C2F9FB7AE
:10074000F8949092E9002091E80025FD02C09FBF37
:10075000DDCF282F30E0C21BD30B882029F0815039
:10076000A0F01092F100FBCFF801C7FC0AC0815045
:1007700050F041914093F100FACF44914093F10041
:1007800031968150D0F7020F131FDD2021F0A09287
:10079000E800D12CDCCF8091E80085FD07C0A09255
:1007A000E800DD24D394209791F2F3CF209779F6D7
:1007B000772069F2A092E800CACF5D9884E6809322
:1007C0008F01C7017CCFCF93DF93EC0180910B01A8
:1007D000882331F083E00E9449031816190634F08B
:1007E00081E090E09B838A8380E090E0DF91CF916D
:1007F0000895615030F02091F100FC0120830196B2
:10080000F8CF289884E68093B301089580918201FF
:1008100081110DC082E080937E0184E080937F018E
:10082000109281011092800181E0809382018EE715
:1008300091E008950F931F93CF93DF931F92CDB74D
:10084000DEB782E0898342E450E06BED70E080E83F
:100850000E940D030E940604DC0112960D911C916A
:100860000115110589F0D801ED91FC910280F38109
:10087000E02DBE016F5F7F4FC801099597FD04C051
:10088000F80100851185ECCF89810F90DF91CF9120
:100890001F910F910895BC01625F7F4FFC0183811E
:1008A00045E050E080640C944903DC01FB011296A2
:1008B0002C911297848195812817190641F4918112
:1008C0008081813A31F49D7F81E0913009F080E0B0
:1008D00008958132E1F79B3029F482811C968C9334
:1008E00081E008959A3099F782811D968C93F8CF14
:1008F000FB0120812138B1F42381223299F4DC01FB
:1009000012964C911297248135814217130651F4A7
:1009100021E01C962C934FE250E06CEA70E080E8F6
:100920000C940D0390E080E00895CF93DF93CDB752
:10093000DEB769970FB6F894DEBF0FBECDBFFC01DE
:10094000DB019C919F5F9C939E012D5F3F4F81E156
:10095000D9011D928A95E9F729E0298384E08A83E9
:1009600091E09D8383E08E832A8721E22B879C87F9
:100970009D879F8722E2288B2FE2298B27E02B8BF4
:1009800025E02C8B8E8B20E430E0388F2F8B998FD5
:1009900082818B83838180688D8B49E150E0BE0129
:1009A0006F5F7F4F80E00E940D0369960FB6F89449
:1009B000DEBF0FBECDBFDF91CF910895599A80E47D
:1009C0008A95F1F7599888E18A95F1F70895589A30
:1009D00080E28A95F1F7589888E18A95F1F70895B1
:1009E000CF93DF93FC0180859185892B81F4EB0106
:1009F00061E771E0CE010E94C50EFE01019000206A
:100A0000E9F731978E2F8C1BDF91CF91089580E00D
:100A1000FBCF1F920F920FB60F9211242F933F938B
:100A20008F939F93AF93BF938091AB019091AC0153
:100A3000A091AD01B091AE013091AA0123E0230F46
:100A40002D3758F50196A11DB11D2093AA01809361
:100A5000AB019093AC01A093AD01B093AE01809136
:100A6000AF019091B001A091B101B091B201019696
:100A7000A11DB11D8093AF019093B001A093B1016E
:100A8000B093B201BF91AF919F918F913F912F9100
:100A90000F900FBE0F901F90189526E8230F029617
:100AA000A11DB11DD2CF1F920F920FB60F9211242C
:100AB0008F939F938091E1009091E100937F9093B9
:100AC000E10083FF0FC01092E90091E09093EB00EA
:100AD0001092EC0092E39093ED001092B40198E034
:100AE0009093F00082FF22C093E09093E9009091F0
:100AF000F200992319F09AE39093E80090918F0106
:100B0000992341F090918F01915090938F01911111
:100B100001C05D9A9091B301992341F09091B30186
:100B200091509093B301911101C0289A84FF18C08D
:100B30008091E2008E7E81608093E2008091E100EE
:100B40008F7E8093E100809190018E7E8061809302
:100B500090019F918F910F900FBE0F901F9018954D
:100B600080FFF7CF8091E2008E7E80618093E2006B
:100B70008091E1008E7E8093E100809190018E7ED5
:100B80008160E5CF1F920F920FB60F921124CF9282
:100B9000DF92EF92FF920F931F932F933F934F9308
:100BA0005F936F937F938F939F93AF93BF93EF93D5
:100BB000FF93CF93DF93CDB7DEB76C97DEBFCDBF8A
:100BC0001092E9008091E80083FF25C068E0CE0123
:100BD00045960E94F90382EF8093E8008D8987FF94
:100BE00039C09091E80090FFFCCF982F907609F0E3
:100BF00034C19E894F89588D2F89F88C911131C04D
:100C0000803861F5809191018093F1001092F1009C
:100C10008EEF8093E8006C960FB6F894DEBF0FBE9F
:100C2000CDBFDF91CF91FF91EF91BF91AF919F9198
:100C30008F917F916F915F914F913F912F911F9174
:100C40000F91FF90EF90DF90CF900F900FBE0F901D
:100C50001F9018959EEF9093E800C7CF1092F10077
:100C6000D5CF913059F48111D3CF4130510581F660
:100C7000809191018D7F80939101CACF933049F487
:100C80008111C6CF4130510519F6809191018260E2
:100C9000F2CF953041F48091E80080FFFCCF2068CE
:100CA0002093E300B5CF963009F0A9C00B8D1C8DC1
:100CB00022E01092E90010928D0110928C01F21244
:100CC0002EC010928B0110928A010E941A041F827A
:100CD00099E09983FA8291E09E8390EA98879AEF4F
:100CE000998720918C0130918D01275F3F4F3C8384
:100CF0002B838D831092E90010928D0110928C014C
:100D000010938B0100938A0149E050E0BE016F5FB0
:100D10007F4F80E00E940D030E941A0479CF109348
:100D20008B0100938A010E940604DC0112960D914A
:100D30001C910115110509F451C1D801ED91FC91E7
:100D40000480F581E02DBE016B5E7F4FC8010995DF
:100D5000009709F03EC1F80100851185EACFF3E064
:100D6000FF120EC08F89882309F440C0823061F4DD
:100D700040E860E18FE391E00E94DA02811148CF00
:100D800081E28093EB0047CF813029F440E86BE0AB
:100D900083E391E0F1CF833099F70E940604DC01F0
:100DA0001296ED90FC908E010F5F1F4F6801E114C9
:100DB000F10479F0D701ED91FC910680F781E02DE7
:100DC000B801C7010995080F111DF701E084F184EE
:100DD000EECFD8011C92F60101900020E9F731977F
:100DE000BF016C197D0940E0C601C6CF6DE171E01D
:100DF000FB01449150E080E80E940D0309CF973039
:100E000009F4BECF983021F481E08093F10000CF47
:100E1000993009F0FDCE837009F0B2CFEDE0F1E03A
:100E200081E031E096E32191222371F08093E90083
:100E30003093EB00DF0111972C912093EC009093FD
:100E4000ED008F5F873079F78EE78093EA0010928C
:100E5000EA008F898093B401DBCE8B8D9C8D10923C
:100E6000E90010928D0110928C0190938B01809378
:100E70008A01898D811192C08E899D89913A49F4A8
:100E8000813209F07DCF47E050E064E071E080E01E
:100E9000B3CF913209F074CF833269F48F89988D82
:100EA000B0E0A0E08093000190930101A0930201C3
:100EB000B0930301ADCE803269F48091E80082FFE7
:100EC000FCCF67E084E091E00E94F9038BEF809310
:100ED000E8009ECE823209F09BCE8F8980930B0171
:100EE000EEEFFFE7859194918B3F9C4D51F1E0E04F
:100EF000F8E08091040190910501A0910601B09164
:100F00000701803B9440A105B105F1F480910B01EC
:100F100080FD1AC0EE3F8AE0F80789F587E797E77A
:100F2000918380838091600080938E0188E19BE0B3
:100F30000FB6F894A895809360000FBE9093600060
:100F400067CEEEEFFAE0D5CF808191818737974762
:100F500009F05ECEA8958091600088618093600062
:100F600080918E0180936000EE3F2AE0F20789F0C5
:100F70008091FE0A9091FF0A9183808349CE8081FF
:100F800091818737980751F29093FF0A8093FE0A68
:100F9000C5CF1092FF0A1092FE0A3ACE0E940604B4
:100FA000DC0112960D911C910115110509F4E8CE92
:100FB000D801ED91FC910190F081E02DBE016B5EB6
:100FC0007F4FC8010995811123CEF8010085118555
:100FD000EBCF181619060CF41BCED2CEF1E0FF129F
:100FE000BECE61E271E004CFEF92FF920F931F93A8
:100FF000CF93DF931092B8011092B70188EE93E07F
:10100000A0E0B0E08093B9019093BA01A093BB0136
:10101000B093BC0187E591E09093B6018093B50150
:101020008FEF9FEF9093C2018093C101C3E2D2E0A2
:1010300011E089E6E82E81E0F82E01EC1C831D8387
:10104000CE010B969F838E8319861886F982E882DB
:101050001C871D870B870E940604FC0181813C814F
:10106000682F630F7727771F683071057CF5A281A1
:10107000B3811097F9F4D383C28390819A838B83D1
:101080008D81890F808390E080E08317F8F42181BF
:10109000A22FB0E0BD01645F7E4F4E815F81480F9B
:1010A000591FDA014C91DB014C932F5F218301968C
:1010B000ECCFDA0118964D915C91199741155105C5
:1010C000C1F71996DC93CE931897D7CF6396B2E009
:1010D000CC35DB0709F0B2CF109215021092140242
:1010E0006E9A769A80B38F7C80BB81B3806381BB1C
:1010F00084B1857F84B985B18A6085B93E98469A66
:1011000057985F9A10921F021092200210922102AB
:1011100010922202109218021092170210921A02D4
:101120001092190280911402909115020E94A90E4A
:1011300091E08D3409F090E09093160210921D0218
:1011400010921E0210921C0281E080931B021092EA
:10115000130210920F0210921102109210021092BC
:10116000120210920D0280930E021092060210924B
:1011700005021092070210920802109209021092C2
:101180000A0210920B0280930C02DF91CF911F9103
:101190000F91FF90EF900895CF93DF93CDB7DEB717
:1011A00028970FB6F894DEBF0FBECDBF789484B5F4
:1011B000826084BD84B5816084BD85B5826085BD53
:1011C00085B5816085BD80916E00816080936E00E1
:1011D00010928100809181008260809381008091D3
:1011E0008100816080938100809180008160809384
:1011F00080008091910082608093910080919100A5
:101200008160809391008091900081608093900034
:101210008091C10084608093C1008091C100826090
:101220008093C1008091C10081608093C100809152
:10123000C30081608093C3008091C000826080936E
:10124000C0008091C20081608093C20080917A00CA
:10125000846080937A0080917A00826080937A0023
:1012600080917A00816080937A0080917A00806812
:1012700080937A001092B401109291011092900123
:101280008091D70081608093D70080EA8093D80056
:1012900089B5806189BD89B5826089BD09B400FEC8
:1012A000FDCF61E070E080E090E00E947A028091E2
:1012B000D8008F7C80618093D8008091E000807F8F
:1012C0008093E0008091E1008E7E8093E1008DE0CC
:1012D0008093E200559A209A8AB183608AB98BB1D3
:1012E0008C7F8BB980B38F7380BB81B3806C81BBE3
:1012F00084B18F7C84B985B1806385B9229A2A9A9A
:1013000061E082E00E94240261E083E00E94240206
:1013100082E00E94100183E00E94100162E082E1FD
:101320000E94240262E089E00E94240262E088E0D8
:101330000E94240210920F021092110210921002C9
:10134000109212021092130261E082E00E942402C5
:1013500061E083E00E94240282E00E94100183E0A9
:101360000E94100162E083E10E94240262E080E0BA
:101370000E94240262E081E00E9424021092060290
:1013800010920502109207021092080210920902B0
:1013900010920A0210920B0280910E0280930C02AE
:1013A00010920D026AEF70E080E090E00E947A02F5
:1013B0002224239466246394712C44244394512C56
:1013C00042E0842E912CA12CB12CC12CD12C760181
:1013D000C39468E080911B02822580931B028111D7
:1013E00002C1769883E290E00197F1F78FB1809384
:1013F0001F0243B14093200296B19093210259B14C
:101400005093220220911C022111ABC120911B029A
:101410009074222309F47BC120911D02782F7072F1
:101420008071222309F434C12091170230911802EF
:10143000E0911E02EE2309F4E0C09111D6C03160A4
:10144000309318022093170220911702309118024E
:1014500057FDCDC0206430931802209317022091CD
:101460001702309118027111C4C02068309318021D
:101470002093170220911702309118028111BBC0EE
:101480003460309318022093170210921E0222E05B
:1014900020931C02615009F09DCF80911902909118
:1014A0001A0281159041B1F48091170290911802AF
:1014B0008115914179F4809116028225809316025C
:1014C0006DE4811101C060E08091140290911502D9
:1014D0000E94B10E80911602882309F431C48091D4
:1014E00017029091180285FB222720F984FB3327ED
:1014F00030F9321731F020E382279093180280935D
:101500001702809117029091180287FB222720F979
:1015100086FB332730F9321731F0E0EC8E279093B9
:1015200018028093170290931A028093190294FF75
:1015300003C09F7E826094609C0194E0369527955D
:101540009A95E1F740E02093570230935802409378
:1015500059022FE781FD03C080FF18C120E82093C6
:101560005B0283FF16C18FE780935A0210920F022D
:101570001092110210921002109212020E94DE04C8
:1015800010E000E0E02F7F990BC080910F029301E3
:10159000002E01C0220F0A94EAF7822B80930F02DB
:1015A0001D990BC0E13009F405C108F4F9C0E2301F
:1015B00009F406C1E33009F409C11C9912C18091F4
:1015C000100290911102E150E73008F005C1F0E0FF
:1015D000E451F54F0C94BF0E780E7A0E7C0E7E0E01
:1015E000800E820E840E769AFDCE3E7F29CF2F7B11
:1015F00032CF2F773BCF3B7F44CF91113DC021604D
:10160000309318022093170220911702309118028C
:1016100057FD34C0226030931802209317022091A6
:1016200017023091180271112BC0246030931802F8
:10163000209317022091170230911802811122C0C5
:10164000286030931802209317028091170290911E
:10165000180243FD19C0806190931802809317020D
:10166000809117029091180241FD10C092609093F2
:101670001802809317020ECF2E7FC2CF2D7FCBCFC3
:101680002B7FD4CF277FDDCF8F7EE6CF9D7FEFCF1F
:101690009923C1F1109218021092170257FD09C048
:1016A0002091170230911802226030931802209383
:1016B0001702711109C0209117023091180224609D
:1016C0003093180220931702811109C080911702EC
:1016D000909118028860909318028093170243FD3E
:1016E00009C08091170290911802806290931802AD
:1016F0008093170241FDCECE80911702909118027F
:101700008061B5CF5092180240921702C7CF807304
:1017100031E009F030E030931D02911105C0509581
:10172000252F221F2227221F20931E028111B2CEB5
:101730002111B0CE809117029091180243FD0DC087
:101740008062909318028093170280911702909103
:10175000180241FD04C098608ACF8F7DF2CF977F39
:1017600086CF8FEF820F80931C02223009F092CE39
:10177000209117023091180296FD06C03061309317
:1017800018022093170286CE3F7EF9CF10925B029B
:10179000E8CE82FF02C080E8E7CE10925A02E6CE81
:1017A00080911002909111028860909311028093B1
:1017B000100203CF80911002909111028460F5CF46
:1017C00080911002909111029860EFCF80911002E9
:1017D000909111028068E9CF82609093110280930A
:1017E00010020E94E7040F5F1F4F0830110509F037
:1017F000C9CE209110023091110281E021153105EE
:1018000009F480E08093120290910F029F3F09F04B
:1018100081E08093130280910F0210929201109246
:1018200093011092940110929501109296011092DA
:101830009701109298011092990180FF08C0809240
:10184000920190929301A0929401B092950181FF30
:1018500011C0409192015091930160919401709157
:1018600095014160409392015093930160939401DC
:101870007093950183FF11C04091920150919301A3
:10188000609194017091950140644093920150934E
:101890009301609394017093950182FF11C0409170
:1018A000920150919301609194017091950140686B
:1018B000409392015093930160939401709395012A
:1018C00084FF08C0C0929601D0929701E0929801DF
:1018D000F092990185FF11C04091960150919701B6
:1018E00060919801709199014260409396015093E4
:1018F0009701609398017093990186FF11C0409100
:1019000096015091970160919801709199014460FE
:1019100040939601509397016093980170939901B9
:1019200087FF11C08091960190919701A091980135
:10193000B091990188608093960190939701A0934C
:101940009801B093990121153105B9F0C901B0E0B2
:10195000A0E04091920150919301609194017091A7
:101960009501842B952BA62BB72B809392019093F6
:101970009301A0939401B09395018091920190916D
:101980009301A09194018093310290933202A0932D
:101990003302809196019FE781FD03C080FFB6C1AD
:1019A00090E89093350283FFB4C18FE780933402AF
:1019B000109206021092050210920702109208027D
:1019C0001092090210920A0210920B020E94DE0489
:1019D00010E000E07E9911C080910502909106020E
:1019E0009301002E02C0220F331F0A94E2F7822BCC
:1019F000932B90930602809305020D3029F47E9973
:101A000003C0F1E0F0930B020E94E7040F5F1F4F49
:101A100000311105F9F680910B02882339F103E1B9
:101A200011E080E1382E4A997BC1F8014081518153
:101A30006281738189B18091070290910802A0911F
:101A40000902B0910A02842B952BA62BB72B809309
:101A5000070290930802A0930902B0930A020E9421
:101A6000E7043A940C5F1F4F3110DDCF80910502DF
:101A700090910602019609F057C180910B02809364
:101A80000D0288E0E5E0F2E0DE01119601900D9292
:101A90008A95E1F789819A814B815C816D817E8194
:101AA000EF8110929A0110929B0110929C0110926A
:101AB0009D0110929E0110929F011092A001109220
:101AC000A10180FF08C0C0929A01D0929B01E092D0
:101AD0009C01F0929D0181FF11C000919A0110912B
:101AE0009B0120919C0130919D01046000939A011B
:101AF00010939B0120939C0130939D0190FF11C096
:101B000000919A0110919B0120919C0130919D01BF
:101B1000026000939A0110939B0120939C013093E3
:101B20009D0191FF11C000919A0110919B0120919C
:101B30009C0130919D01086000939A0110939B01D4
:101B400020939C0130939D0192FF11C000919A0156
:101B500010919B0120919C0130919D0100610093A7
:101B60009A0110939B0120939C0130939D0193FF58
:101B700011C000919A0110919B0120919C0130911C
:101B80009D01006200939A0110939B0120939C0198
:101B900030939D0183FF11C000919A0110919B0128
:101BA00020919C0130919D01006400939A01109353
:101BB0009B0120939C0130939D0182FF11C00091F5
:101BC0009A0110919B0120919C0130919D01006828
:101BD00000939A0110939B0120939C0130939D01E7
:101BE00084FF08C0C0929E01D0929F01E092A001A4
:101BF000F092A10185FF11C000919E0110919F01FB
:101C00002091A0013091A101026000939E011093E8
:101C10009F012093A0013093A10186FF11C0009184
:101C20009E0110919F012091A0013091A1010460BB
:101C300000939E0110939F012093A0013093A10176
:101C400087FF11C080919E0190919F01A091A001FA
:101C5000B091A101886080939E0190939F01A09311
:101C6000A001B093A101EE23A9F0772780919A01FA
:101C700090919B01A0919C01B0919D01842B952B8B
:101C8000A62BB72B80939A0190939B01A0939C0164
:101C9000B0939D0180919A0190919B01A0919C012C
:101CA0008093440290934502A093460280919E0146
:101CB0009FE781FD03C080FF39C090E89093480200
:101CC00083FF37C08FE78093470283E292E00E9450
:101CD0004B0486E392E00E944B0489E492E00E9468
:101CE0004B048FE99FE00197F1F700C0000071CB32
:101CF000816073CD806171CD91606FCD80626DCD5B
:101D000092606BCD946069CD806467CD109235028E
:101D10004ACE82FF02C080E849CE1092340248CEFB
:101D200040E050E0BA0186CE81E0A9CE1092480290
:101D3000C7CF82FF02C080E8C6CF10924702C5CF4E
:101D4000809117029091180290931A0280931902C1
:101D5000F3CBF999FECF92BD81BDF89A992780B552
:101D60000895262FF999FECF1FBA92BD81BD20BDDF
:101D70000FB6F894FA9AF99A0FBE01960895EE0FED
:101D8000FF1F0590F491E02D0994FB01DC01019007
:0C1D90000D920020E1F70895F894FFCFB9
:101D9C00FFFFFFFF00E100000000000000C1808198
:101DAC000000000000010000000200000004000020
:101DBC00000800000010000000200000004000009F
:101DCC000080000000000100000002000000040080
:101DDC0000000800000010000000200000000000BF
:101DEC0000008000000000A701E3034403BD010ACA
:101DFC0002C801E60100000000550495047804F0C7
:0E1E0C0004344441505445525F4455414C004B
:00000001FF
